:020000040800F2
:100000000000022019020008A9060008AB0600083B
:10001000AD060008AF060008B106000800000000A9
:10002000000000000000000000000000B30600080F
:10003000B506000800000000B7060008B906000871
:1000400069020008690200086902000869020008E4
:1000500069020008690200086902000869020008D4
:10006000690200086902000869020008BD0600086C
:1000700069020008690200086902000869020008B4
:1000800069020008690200086902000869020008A4
:100090006902000869020008690200086902000894
:1000A0006902000869020008690200086902000884
:1000B0006902000869020008690200086902000874
:1000C0006902000869020008690200086902000864
:1000D0006902000869020008690200086902000854
:1000E000C9060008690200086902000869020008E0
:1000F0006902000869020008690200086902000834
:100100006902000869020008690200086902000823
:100110006902000869020008690200086902000813
:100120006902000869020008690200086902000803
:1001300069020008690200086902000869020008F3
:1001400069020008690200086902000869020008E3
:1001500069020008690200086902000869020008D3
:1001600069020008690200086902000869020008C3
:1001700069020008690200086902000869020008B3
:1001800069020008690200086902000869020008A3
:100190006902000800000000690200086902000806
:1001A0006902000869020008690200086902000883
:1001B0006902000869020008690200086902000873
:1001C0006902000869020008690200086902000863
:0801D000690200086902000841
:1001D80010B5054C237833B9044B13B10448AFF379
:1001E80000800123237010BD84000020000000005F
:1001F800D41E000808B5034B1BB103490348AFF3ED
:10020800008008BD0000000088000020D41E0008FF
:100218000D4885460D480E490E4A002302E0D45881
:10022800C4500433C4188C42F9D30B4A0B4C002336
:1002380001E013600432A242FBD300F0C5FA01F0DA
:1002480019FE00F055F8FEE700000220000000202B
:10025800840000200C1F000884000020D801002022
:10026800FEE70000014B01221A707047A000002031
:1002780008B5002000F055FA4FF47A7000F0F8FA4B
:10028800F7E700B595B03822002106A801F016FE60
:100298001422002101A801F011FE4FF4007001F0B2
:1002A80097F840224FF480710420CDE909124B22BF
:1002B8000223CDE90F0206A80693CDE90D33CDE957
:1002C8001133139301F0DEF808B1FFF7D1FF0F22C5
:1002D8000323CDE903000590072101A8CDE90123F7
:1002E80001F01AFB0028F0D115B05DF804FB0000FE
:1002F80080B59CB000F09AFAFFF7C3FF964B974C75
:10030800DA6C42F00102DA64DA6C02F0010205925A
:10031800059A9A6C42F004029A649A6C02F00402FC
:100328000392039A9A6C42F001029A649B6C002231
:1003380003F00103114604930B20049B00F0BEFA5E
:100348000B2000F0EFFA3022002110A801F0B6FDD2
:10035800834B2360204600F009FB024608B1FFF7F3
:1003680087FF0223109312211E23CDE913130523BF
:10037800CDE916308DF844008DF84500129015909F
:1003880010A9204600F008FC03460028E7D140F2F7
:100398004442009201464FF48052204600F0E4FCAB
:1003A80002460028DBD110A9204600F022FD0646AF
:1003B8000028D4D110AC0FCC6A4D0FC50FCC0FC597
:1003C80094E80F00684C85E80F00102231460CA80D
:1003D80001F074FD95234FF08042C4E900232046C4
:1003E80040F2E733CDE909660B96A660C4E9033607
:1003F800A66101F02DFC0028B1D14FF480530CA95F
:1004080020460C9301F048FC0028A8D120260B9028
:1004180009A92046099601F0FBFC00289FD1534DFD
:10042800534B0890C5E90030CDE90600A86040F6B6
:10043800C313A8612846EB6001F00AFC00288ED19E
:10044800089006A92846069601F0E2FC0546002811
:1004580085D100F039F90121284600F06BF92046D2
:1004680001F054FB00287FF47AAF404801F04EFBBE
:10047800014600287FF473AF384800F08AFA002854
:100488007FF46DAF3B4E00F043F93546274633788D
:10049800002BFCD096F83430D3B9012386F83430D9
:1004A80095F834403846E4B201F048FB00287FF460
:1004B80056AF2E4801F042FB014600287FF44FAFAB
:1004C80044B1012C7FF44BAF244800F092FA05E0C8
:1004D8000023E3E72146214800F014FB00287FF4BD
:1004E8003EAFD5E904321F491C48C5E90423002260
:1004F80000F052FB014600287FF431AF4CB1012CCB
:100508007FF42DAF00903C231B4A144800F084FA76
:1005180010E040F2444300934FF4805223462146B2
:100528000E4800F021FC00287FF419AF21460B4843
:1005380000F02FFA00287FF412AF384601F0E6FAEF
:1005480000287FF40CAF094801F0E0FA00287FF496
:1005580006AF28709BE700BF00100240D8000020BB
:1005680000080050A40000208C0100204C0100204D
:1005780000100040A0000020000000200D4B1A6E63
:1005880042F001021A661A6E82B002F0010200926D
:10059800009A9A6D42F080529A659B6D064A03F064
:1005A80080530193019B936823F48043936002B0C6
:1005B800704700BF001002400070004070B505464B
:1005C80088B01422002103A801F078FC2A681F4B88
:1005D8009A4239D103F1704303F502331026DA6CDD
:1005E8001B4C42F48032DA64DA6C02F480320192F5
:1005F800019ADA6C42F00102DA64DB6C03F0010361
:100608000293029B03A903234FF09040CDE90363B3
:1006180000F0F4FD0F4AA6600623C4E90023002376
:100628008022C4E903324FF400714FF48062C4E9B8
:10063800051220462022C4E9072300F0A1FC08B1D6
:10064800FFF716FEAC60A56208B070BD0008005048
:10065800EC000020080002400368B3F1804F82B02C
:100668000CD103F504339A6D42F001029A659B6D33
:1006780003F001030093009B02B07047064A9342BF
:10068800FAD1064B9A6D42F010029A659B6D03F001
:1006980010030193019BEFE7001000400010024097
:1006A8007047FEE7FEE7FEE7FEE7704770477047D2
:1006B80000F0CCB8014800F048BD00BFEC000020B5
:1006C8004FF4005000F078BE104B30B5DA6C42F0B1
:1006D8000102DA64DB6C87B003F001030093009B2E
:1006E800202501230024CDE9015301A903234FF05C
:1006F8009040CDE9034300F081FD224629464FF0A2
:10070800904000F04DFE204607B030BD001002407A
:1007180008B5012220214FF0904000F041FE002052
:1007280008BD08B520214FF0904000F03EFE0020A3
:1007380008BD00001B4B30B5DA6C42F00402DA64E5
:10074800DB6C87B003F004030093009B4FF4005365
:10075800019302230546CDE9033339B902911248C2
:1007680001A900F04BFD002007B030BD0F4C104B25
:100778000D48029301A904EBC50400F03FFD0D49A3
:10078800204600F034FD0C4A0021204600F027FDE9
:1007980000220F21282000F091F8282000F0C2F84C
:1007A800E1E700BF0010024000080048CC0100202B
:1007B800000011100D000006C7070008704708B5B3
:1007C8000020FFF7FBFF08BD054BD3F8882042F453
:1007D8007002C3F888204FF000629A60704700BF2B
:1007E80000ED00E070B50F4E0546306808B90120ED
:1007F80070BD0D4A4FF47A73B3FBF0F31068B0FB89
:10080800F3F000F09DF804460028F0D10F2DEED843
:10081800024629464FF0FF3000F050F87560204638
:10082800E6E700BF7C0000207800002010B5032018
:1008380000F032F80020FFF7D5FF044618B9FFF79B
:100848009DFE204610BD0124FBE70000034A044931
:10085800136809680B441360704700BFD401002077
:100868007C000020014B1868704700BFD4010020AD
:1008780038B50446FFF7F6FF631C1CBF054B1B6821
:10088800054618BFE418FFF7EDFF401BA042FAD356
:1008980038BD00BF7C000020074AD36823F4E0631A
:1008A8001B041B0C43F0BF63000243F4003300F445
:1008B800E0600343D360704700ED00E0174B70B56C
:1008C800DC68C4F30224C4F10705042D04F1040311
:1008D80028BF04254FF0FF36062B06FA05F38CBF18
:1008E800033C002421EA0303A34006FA04F422EAA5
:1008F8000404002843EA0403A8BF00F160404FEA5B
:100908000313BCBF00F00F00054ADBB2AABF00F515
:100918006140135480F8003370BD00BF00ED00E063
:1009280014ED00E0002808DB4209012300F01F0055
:1009380003FA00F0014B43F82200704700E100E0A1
:100948000138B0F1807F0AD2064B074A5860F0217F
:1009580082F823100020072298601A60704701204F
:10096800704700BF10E000E000ED00E010B504465D
:1009780068B1037903F0FF0213B94271FFF71EFE55
:1009880002232371002001232061237110BD01205F
:10099800FCE7F8B54379012B05460F464FF00204F2
:1009A80025D02A682C711168012007F0100600FA7A
:1009B80006F30B4368711360FFF75AFF2B681A6838
:1009C80067B902F03E02A24203D15A6842F001021E
:1009D8005A60012300202B716871F8BD02F4781267
:1009E800B440A242F5D15A6842F00202F0E720462C
:1009F800F3E7026838B501F010011368012404FA1E
:100A080001F1054623EA010320461360FFF730FF92
:100A18002C71002038BD0000F8B504464079012843
:100A28000D464FF002061146069A2FD0012060713C
:100A380026712068002D31D1A6682C4FF7622C4F03
:100A480037632C4F77630668042A46F4805606609D
:100A58001ED0082A1FD0002A40D100F108020668DB
:100A680046F400560660A06800F0FAFA002306462D
:100A78006371002834D1236805F010051A68012035
:100A880000FA05F515431D60FFF7F2FE3046F8BD84
:100A980000F10C02E3E700F11002E0E7E668164F08
:100AA800F762164F3763164F77630668042A46F0D5
:100AB800805606600AD0082A0BD06AB900F11402E1
:100AC800066846F000560660E068CDE700F11802B7
:100AD800F6E700F11C02F3E70022F1E72A46BEE739
:100AE800236943F004032361D0E700BF690B0008C2
:100AF8007B0B0008870B0008C50D0008D70D000800
:100B0800E30D0008036870B501F0100204464FF4C5
:100B180080551868954020EA050018601D68012076
:100B280000FA02F225EA02020E461A60FFF7A0FE5A
:100B38005EB9A06800F0D6FA2268136823F400535F
:100B4800136050B10423237170BDE06800F0CAFA45
:100B58002268136823F00053F2E70123F3E7704794
:100B680010B5846A2046FFF7FAFF0123237110BDF0
:100B7800704708B5806AFFF7FBFF08BD704710B5DE
:100B8800846A236943F0040323612046FFF7F6FFD4
:100B98000123237110BD00004379012B2DE9F04199
:100BA80004460E4615464FF0020000F0BA808B68E6
:100BB80020710122042B627127D1002D40F0B780EB
:100BC800FFF750FE074623685B6B180400F19D8011
:100BD8000120FFF74DFE2368726A1A64216805F048
:100BE80010008A6C40F2FF33834022EA0302B36AA2
:100BF80083401A438A64CB6CFF22824023EA0203B3
:100C0800F26A02FA00F00343CB64F3692268012B0D
:100C180005F0100508D1936B1F21A94023EA0101B3
:100C2800336AAB400B439363D76B0723AB4027EA88
:100C38000307D6E90532D10700F18480920700F155
:100C48008480B3FA83F84FEA5818B2684FF4807179
:100C58001343A940327927F4404727EA01077179FD
:100C6800012A43EA080314BF4FF000084FF48078C4
:100C7800012948EA030314BF4FF000084FF4007835
:100C880048EA030833684FF40072AA40022B27EAA7
:100C9800020763D100F034FF314B984258D947F42A
:100CA8000047226808FA05F848EA0707D763136877
:100CB8004FF48041A94023EA010313601168F368E7
:100CC80040F6FE70A84021EA000003FA05F101434E
:100CD80011601168C020A84021EA00011160C3F327
:100CE80083013369106E9B0103F470630B4340F674
:100CF8000F71AB4001FA05F520EA05051D430020F8
:100D080001231566237160710BE0FFF7ABFDC01B73
:100D180001287FF658AF2369032043F008032361B5
:100D28002071BDE8F081FFF79DFD0128F3D8236805
:100D38005B6B002BF7DB0120FFF79AFD2368726AD3
:100D48005A644BE74FF000087FE74FF001087CE753
:100D5800044B9842A5D947F48047A2E71F43A0E770
:100D68000068890900B4C40430B54479012C4FF0F7
:100D7800020420D01343039A0471012545710468C5
:100D880043EA024389B9A26D02F460421343A365A2
:100D9800226801F01003C02199401143012321600A
:100DA800037100234371184630BDE26D02F46042BE
:100DB8001343E365ECE72046F6E7704710B5846A0D
:100DC8002046FFF7FAFF0123237110BD704708B5CD
:100DD800806AFFF7FBFF08BD704710B5846A236976
:100DE80043F0040323612046FFF7F6FF0123237134
:100DF80010BD2DE9F04F884685B0144605460028F9
:100E08007CD00379022B79D04379012B78D02968DB
:100E180002F0100B0723CE6B012003FA0BF70B68C7
:100E2800687100FA0BF223EA02030B60FFF720FD5A
:100E38002B68D96B21EA0701D9630393039A002C25
:100E48005AD108320392039A4FF4006111601A686C
:100E58004FF4804A0AFA0BFA1F2442EA0A0204FAFB
:100E68000BF41A60E443042108224FF010092868A3
:100E7800836B09FA0BFC234043EA0C0383630120CC
:100E8800CDE90012FFF7F4FC2868DDE90012436B96
:100E98003AEA03030CBFA9EB0209914401394FEA6E
:100EA8005202E4D1836B09FA0BF2234013438363A4
:100EB8000120FFF7DDFC2A68536B1AEA030F07D1FC
:100EC800936B09F101091C4009FA0BF3234393635F
:100ED800136823EA0A031360D16BC8F82090012332
:100EE800C8F81C3086EA01033B404B400020D3631E
:100EF800687105B0BDE8F08F1432A3E70120F8E768
:100F08000220F6E770B5D0E913456560446D14B169
:100F1800D0E916456560D0E9106404F01F05012486
:100F2800AC407460046863608368102B0BBFA260D8
:100F3800A160E160E26070BD03680D490D4A10B51B
:100F48000D4CA34288BF0A46416C21F003010A44B4
:100F58008264DBB2094AC264083B1422B3FBF2F391
:100F6800012203F01F0302FA03F3036510BD00BF5B
:100F7800200802400008024007040240800802409E
:100F880010B5044600285DD001682F4B99424FF0F8
:100F980014004AD82D4A0A44B2FBF0F29200626467
:100FA800A3F207432364022384F82530D4E90230EE
:100FB800034320690A68034360690343A069034344
:100FC800E0690343206A22F4FF4222F070020343DF
:100FD80013430B602046FFF7AFFFA368A16CB3F57E
:100FE800804F04BF002363606268D3B20B60D4E90A
:100FF8001310013A032A48601FD8154A1548A065FE
:101008001A44013B9200012103F01F0301FA03F384
:1010180000216265E3651160436000200123E063FD
:1010280084F8240084F8253010BD0B4B0B44B3FB27
:10103800F0F39B006364094BB4E70023C4E915335C
:10104800E365EAE70120EFE707040240F8FFFDBF88
:101058003F82001040090240F8FBFDBF0004024037
:1010680070B590F82450012D044639D0012580F838
:10107800245090F82550012D4FF000064FF002053E
:101088002CD180F82550C6630668356825F001051F
:101098003560FFF737FF026B0368BAB11A6842F090
:1010A8000E021A60A26C1168C90342BF116841F4AC
:1010B80080711160626D1AB1116841F4807111601C
:1010C8001A6842F001021A60002070BD1A6822F006
:1010D80004021A601A6842F00A02E2E780F8246003
:1010E8000220F2E790F82520022A034609D00422BC
:1010F800C2630120012283F82520002283F82420DE
:1011080070470268806C116821F00E011160016857
:1011180021F480710160116821F001011160D3E9A7
:10112800100202F01F0101228A404260D3E9132114
:10113800586D51600028DDD0026822F48072026088
:10114800D3E9162100205160D4E7016C426C036892
:1011580070B402F01F020E681D68042494403442E3
:101168000ED015F0040F0BD01A6892065EBF1A68ED
:1011780022F004021A60036B4C6073B370BC18470A
:1011880002249440344212D015F0020F0FD01A688E
:10119800950606D41A6822F00A021A60012380F81C
:1011A800253000234C6080F82430C36AE5E7082422
:1011B8009440344211D02C070FD51C6824F00E043B
:1011C8001C60012303FA02F24A60C36380F82530E9
:1011D800002380F82430436BCFE770BC704711B907
:1011E800426008467047002343600120704710B1F1
:1011F8000160002070470120704700002DE9F04F82
:10120800644AD1F80080DFF8949185B0002338FA59
:1012180003F402D105B0BDE8F08F01249C4014EA24
:101228000806019400F0AA804C6824F0100ABAF16C
:10123800020F16D14FEAD30E00EB8E0E03F0070B08
:10124800DEF820504FEA8B0B4FF00F0C0CFA0BFC1A
:1012580025EA0C0C0D6905FA0BF545EA0C05CEF8E4
:1012680020504FEA430E0325D0F800B005FA0EF5DA
:10127800ED4304F0030C05EA0B0B0CFA0EFC0AF123
:10128800FF3A4CEA0B0CBAF1010FC0F800C016D8AF
:10129800D0F808C0CF6805EA0C0C07FA0EFA4AEA3B
:1012A8000C0CC0F808C0D0F804C0019F2CEA07074E
:1012B800C4F3001C0CFA03FC4CEA07074760C76834
:1012C8003D408F6807FA0EF73D43C560E50055D5E8
:1012D800D9F8605045F00105C9F86050D9F8605058
:1012E80023F0030707F1804705F0010507F580376C
:1012F800039503F0030E039DBD684FEA8E0E4FF071
:101308000F0C0CFA0EFCB0F1904F25EA0C0C37D0FC
:10131800214DA84236D005F58065A84234D005F5A0
:101328008065A84232D005F58065A84230D005F521
:101338008065A84214BF0625052505FA0EF545EA7D
:101348000C05BD601568F74314F4803F0CBF3D40A1
:1013580035431560556814F4003F0CBF3D403543D4
:101368005560956814F4801F0CBF3D403543956067
:10137800D568A40254BF3D403543D560013346E7E4
:101388000025DAE70125D8E70225D6E70325D4E7C3
:101398000425D2E700040140000400480010024080
:1013A8000AB1816170478162704743690B4214BF7B
:1013B800816281617047000008B5044B5969014298
:1013C80002D05861FEF74EFF08BD00BF000401407F
:1013D800294B1A6828BB02F4C062B2F5806FD3F8B3
:1013E800802022F48072C3F8802019D11A6822F470
:1013F800C06242F400721A60204A116832224A43DD
:101408001F49B2FBF1F2194601325869400500D56F
:1014180022B94B695B052DD503207047013AF4E7E3
:101428007047B0F5007F20D102F4C062B2F5806F3A
:10143800D3F8802042F48072C3F880201AD11A6849
:1014480022F4C06242F400721A600C4A1168322217
:101458004A430B49B2FBF1F219460132586940057B
:10146800D7D5002AD5D0013AF8E722F4C06242F471
:1014780080621A60002070470070004078000020E9
:1014880040420F002DE9F341044608B901203FE02E
:101498000368DF0714D423689E075AD423681E07FD
:1014A80000F1A38023685D0700F1CA8023689B06CA
:1014B80000F13181E069002840F05E81002027E0DA
:1014C800AA4DAB68EA6803F00C030C2B0AD102F0B2
:1014D8000303032B08D12B689D03DCD56368002B1D
:1014E800D9D1D3E7082BF5E76368B3F5803F12D16C
:1014F8002B6843F480332B60FFF7B4F906462B685A
:101508009803C8D4FFF7AEF9801B6428F7D90320E5
:1015180002B0BDE8F081B3F5A02F04D12B6843F4E5
:1015280080232B60E4E72A6822F480322A602A6844
:1015380022F480222A60002BDED1FFF793F90646B9
:101548002B689903A7D5FFF78DF9801B6428F7D975
:10155800DDE7864DAB68EA6803F00C030C2B17D166
:1015680002F00303022B15D12B685A0502D5E36854
:10157800002B8BD06B68226923F0FE4343EA026399
:101588006B607B4B1868FFF72DF9002886D07DE744
:10159800042BE8E7E368BBB12B6843F480732B6046
:1015A800FFF760F906462B685B0507D56B6822696B
:1015B80023F0FE4343EA02636B606FE7FFF752F9DB
:1015C800801B0228EFD9A2E72B6823F480732B60D5
:1015D800FFF748F906462B685F057FF55FAFFFF711
:1015E80041F9801B0228F6D991E763695F4D9BB1E9
:1015F800D5F8943043F00103C5F89430FFF732F979
:101608000646D5F8943098073FF54CAFFFF72AF90E
:10161800801B0228F5D97AE7D5F8943023F0010326
:10162800C5F89430FFF71EF90646D5F894309907A7
:101638007FF538AFFFF716F9801B0228F5D966E762
:101648004A4DAB6DDA0027D4AB6D43F08053AB65E0
:10165800AB6D03F080530193019B0127454E33681E
:10166800DB051BD5A368012B29D1D5F8903043F0B1
:101678000103C5F89030FFF7F5F841F288380646BF
:10168800D5F89030990740D5002F3FF40FAFAB6DD8
:1016980023F08053AB6509E70027DFE7336843F49D
:1016A80080733360FFF7DEF880463368D805D9D4F5
:1016B800FFF7D8F8A0EB08000228F6D927E7052B92
:1016C80006D1D5F8903043F00403C5F89030CCE744
:1016D800D5F8902022F00102C5F89020D5F8902086
:1016E80022F00402C5F89020002BC4D1FFF7BAF805
:1016F80041F288380646D5F890309A07C4D5FFF7E6
:10170800B1F8801B4045F6D901E7FFF7ABF8801B1D
:101718004045B5D9FBE6A369144D9BB1D5F898307F
:1017280043F00103C5F89830FFF79CF80646D5F852
:1017380098309F073FF5BEAEFFF794F8801B02284C
:10174800F5D9E4E6D5F8983023F00103C5F89830C8
:10175800FFF788F80646D5F8983098077FF5AAAEBF
:10176800FFF780F8801B0228F5D9D0E60010024068
:101778008000002000700040494B9A6802F00C027B
:101788000C2A1D4657D01B68022823F080732B6053
:101798003AD1FFF767F806462B6899012ED4EA6814
:1017A800404B1340226A1343A26A43EA0223E26AC7
:1017B80043EAC263626A013A43EA0213226B52089F
:1017C800013A43EA4253626B5208013A43EA4263E0
:1017D800EB602B6843F080732B60EB6843F08073F9
:1017E800EB60FFF73FF804462B689A013FF566AEB9
:1017F800FFF738F8001B0228F6D988E6FFF732F819
:10180800801B0228C8D982E6EB6823F00303EB604B
:10181800EB6823F0887323F48033EB60FFF722F83A
:1018280004462B689B017FF549AEFFF71BF8001BA8
:101838000228F6D96BE601283FF46AAEDB68226A13
:1018480003F0030191427FF421AE616A03F0F002D4
:101858000139B2EB011F7FF419AEA16A03F4FE420D
:10186800B2EB012F7FF412AEE16A03F07842B2EBDB
:10187800C16F7FF40BAE226B520803F4C001013A2A
:10188800B1EB425F7FF402AE626B5208013A03F09B
:10189800C063B3EB426F14BF0120002038E600BFDD
:1018A800001002400C809F01184B9A6802F00C024D
:1018B800042A25D09A6802F00C02082A22D09A68D5
:1018C80002F00C020C2A1FD1D968D86801F0030174
:1018D8000329D968DB68C3F34163C0F30310C1F37C
:1018E800062103F1010300F101024FEA43030CBF93
:1018F80007480848B0FBF2F04843B0FBF3F07047E4
:1019080004487047024870470020704700100240A2
:1019180000366E010024F4002DE9F8430D46064612
:1019280010B90120BDE8F8836D4A136803F00F036E
:101938008B4245D3316811F001074CD132689107C9
:1019480040F1A880674B12F0040F1EBF996841F45C
:10195800E0619960120741BF9A6822F47C5242F410
:10196800E0629A609A68B16822F0F0020A439A60CD
:101978005B4C236803F00F03AB4200F2948032689B
:10198800584C12F0040F40F0A480130706D5A36842
:10199800326923F4605343EAC203A360FFF784FF6C
:1019A800A368514AC3F30313D35C03F01F03D84061
:1019B8004E4B18604E4B1868BDE8F843FEF712BF4F
:1019C800136823F00F030B431360136803F00F032E
:1019D8008B42A6D1AEE77368424C032B4AD12368E9
:1019E8009F019ED5E068E368C3F303135A1C00F017
:1019F8000303032BE0680CBF3E4B3F4BB3FBF2F3F2
:101A0800E268C2F34162C0F3062001325200434348
:101A1800B3FBF2F3394A93421BD80027A3687268D4
:101A280023F003031343A360FEF71CFF41F2883938
:101A38008046A368726803F00C03B3EB820F3FF48F
:101A48007DAFFEF70FFFA0EB08004845F1D9032052
:101A580068E7A36813F0F00F04D08807DDD5B368F2
:101A6800002BDAD1A36823F0F00343F08003A360CE
:101A78008027D3E7022B236809D113F4003F3FF4F2
:101A880050AFFFF711FF1D4B9842C6D9EAE713F490
:101A9800806FF4E7002F3FF46BAF124A936823F08E
:101AA800F003936064E7236823F00F032B4323605C
:101AB800FEF7D8FE41F288380746236803F00F0383
:101AC800AB423FF45CAFFEF7CDFEC01B4045F4D9F6
:101AD800BDE7A368F16823F4E0630B43A36054E710
:101AE8000020024000100240EC1E00087800002090
:101AF8008000002000366E010024F40000B4C40405
:101B0800014B1868704700BF780000200223026864
:101B180080F83D309168084B0B40062B06D0B3F592
:101B2800803F1EBF136843F001031360012380F850
:101B38003D300020704700BF07000100022380F8F5
:101B48003D300368196A41F21112114208D1196A2D
:101B580044F24442114202BF1A6822F001021A609C
:101B6800012380F83D30002070470000364A0368A2
:101B7800904216D0B0F1804F13D0A2F59432904223
:101B88000FD002F5806290420BD002F5806290423D
:101B980007D002F59432904203D002F5E052904209
:101BA80019D14A6823F070031343274A904221D081
:101BB800B0F1804F1ED0A2F5943290421AD002F5AF
:101BC8008062904216D002F58062904212D002F5EF
:101BD800943290420ED01D4A90420BD002F580629A
:101BE800904207D002F58062904203D002F500626D
:101BF800904203D1CA6823F4407313434A6923F01F
:101C08008003134303608B68C3620B6883620E4BC7
:101C1800984213D003F5006398420FD003F5406350
:101C280098420BD003F58063984207D003F5806390
:101C3800984203D003F50063984201D10B6903630E
:101C480001234361704700BF002C01400040014060
:101C580010B50446A0B190F83D3003F0FF021BB95F
:101C680080F83C20FEF7F8FC022384F83D30206819
:101C7800211DFFF77BFF012384F83D30002010BDB4
:101C88000120FCE710B584680A4324F47F4442EA43
:101C980003232343836010BD90F83C30012B70B5BB
:101CA80004464FF002002AD084F83D002068012342
:101CB80084F83C308268524B134083600B68B3F55C
:101CC800005F46D02BD8302B05D00DD8102B02D072
:101CD800202B00D06BB9826822F4401222F07002E7
:101CE80043F00703134356E0502B3CD008D8402B51
:101CF8006DD00123002084F83D3084F83C0070BD8D
:101D0800602B4AD0702BF4D1CB68D1E90121FFF7C1
:101D1800B9FF2268936843F077039360E9E7394A8B
:101D28009342D8D009D8B3F1101FD4D0103A9342B7
:101D3800D1D0B3F5801FDCD1CDE7334A9342CAD066
:101D480002D8103A9342F6E7304A9342C3D0103291
:101D5800F8E7CB68D1E90121FFF794FF226893687F
:101D680043F48043D9E74A68CE68016A056A25F0DA
:101D780001050562836921F00A0123F0F00343EAB3
:101D880006130A4383610262836823F4401323F035
:101D9800700343F057038360ABE74D68CE68016A70
:101DA80021F0100101628269036A22F4704223F073
:101DB800A00343EA051342EA06328261036283689C
:101DC80023F4401323F0700343F06703E3E74A6802
:101DD800CE68016A056A25F001050562836921F06C
:101DE8000A0123F0F00343EA06130A4383610262FF
:101DF800836823F4401323F0700343F04703CAE7D2
:101E08008800CEFF30001000500010006000100065
:101E180090F83C30012B30B54FF0020325D0026812
:101E2800134D80F83D30AA425368946807D005F5F1
:101E38000065AA4203D005F5E055AA4203D14D68D2
:101E480023F470032B430D68896823F0007323F093
:101E580070032B4324F080045360214301239160D5
:101E680080F83D30002380F83C30184630BD00BF74
:101E7800002C014070B50D4E0D4CA41BA41000257C
:101E8800A54209D10B4E0C4C00F020F8A41BA4105D
:101E98000025A54205D170BD56F825309847013573
:101EA800EEE756F8253098470135F2E7041F000899
:101EB800041F0008041F0008081F00080244034606
:101EC800934200D1704703F8011BF9E7F8B500BF4A
:101ED800F8BC08BC9E467047F8B500BFF8BC08BC03
:041EE8009E4670475B
:101EEC0000000000000000000102030406070809BE
:081EFC000000000001020304D4
:041F0400FD010008D3
:041F0800D9010008F3
:101F0C00FF07CB0894095A0A180BCE0B790C180D45
:101F1C00A80D290E980EF40E3E0F720F920F9D0F06
:101F2C00920F720F3E0FF40E980E290EA80D180D7D
:101F3C00790CCE0B180B5A0A9409CB08FF07330700
:101F4C006A06A405E60430048503E6025602D501B0
:101F5C0066010A01C0008C006C0061006C008C00F2
:101F6C00C0000A016601D5015602E6028503300461
:101F7C00E604A4056A0633070024F40001000000FF
:041F8C001000000041
:0400000508000219D4
:00000001FF
